{
  "transactions": [
    {
      "hash": "0xb029881aeeab2a5ad2ad2793d6ae8e5741da5014ee65e14abd6bd5bda298beeb",
      "transactionType": "CALL",
      "contractName": null,
      "contractAddress": "0x779877a7b0d9e8603169ddbd7836e478b4624789",
      "function": "transferAndCall(address,uint256,bytes)",
      "arguments": [
        "0x9DdfaCa8183c41ad55329BdeeD9F6A8d53168B1B",
        "3000000000000000000",
        "0x12a86a2d218796e5a986d3ea705674b8102687c585428a5671a8558b3bc479cc"
      ],
      "transaction": {
        "from": "0x29c2d9b84a2d0a52a899e1e85b600a6aad7cc950",
        "to": "0x779877a7b0d9e8603169ddbd7836e478b4624789",
        "gas": "0x14cbb",
        "value": "0x0",
        "input": "0x4000aea00000000000000000000000009ddfaca8183c41ad55329bdeed9f6a8d53168b1b00000000000000000000000000000000000000000000000029a2241af62c00000000000000000000000000000000000000000000000000000000000000000060000000000000000000000000000000000000000000000000000000000000002012a86a2d218796e5a986d3ea705674b8102687c585428a5671a8558b3bc479cc",
        "nonce": "0x24",
        "chainId": "0xaa36a7"
      },
      "additionalContracts": [],
      "isFixedGasLimit": false
    }
  ],
  "receipts": [
    {
      "status": "0x1",
      "cumulativeGasUsed": "0x83dac8",
      "logs": [
        {
          "address": "0x779877a7b0d9e8603169ddbd7836e478b4624789",
          "topics": [
            "0xddf252ad1be2c89b69c2b068fc378daa952ba7f163c4a11628f55a4df523b3ef",
            "0x00000000000000000000000029c2d9b84a2d0a52a899e1e85b600a6aad7cc950",
            "0x0000000000000000000000009ddfaca8183c41ad55329bdeed9f6a8d53168b1b"
          ],
          "data": "0x00000000000000000000000000000000000000000000000029a2241af62c0000",
          "blockHash": "0x91b1b933d6fbc777a0eccc6f07a6251f04f386e7e5060a3767128f2e96a256a2",
          "blockNumber": "0x65e7c6",
          "transactionHash": "0xb029881aeeab2a5ad2ad2793d6ae8e5741da5014ee65e14abd6bd5bda298beeb",
          "transactionIndex": "0x6f",
          "logIndex": "0x4d",
          "removed": false
        },
        {
          "address": "0x779877a7b0d9e8603169ddbd7836e478b4624789",
          "topics": [
            "0xe19260aff97b920c7df27010903aeb9c8d2be5d310a2c67824cf3f15396e4c16",
            "0x00000000000000000000000029c2d9b84a2d0a52a899e1e85b600a6aad7cc950",
            "0x0000000000000000000000009ddfaca8183c41ad55329bdeed9f6a8d53168b1b"
          ],
          "data": "0x00000000000000000000000000000000000000000000000029a2241af62c00000000000000000000000000000000000000000000000000000000000000000040000000000000000000000000000000000000000000000000000000000000002012a86a2d218796e5a986d3ea705674b8102687c585428a5671a8558b3bc479cc",
          "blockHash": "0x91b1b933d6fbc777a0eccc6f07a6251f04f386e7e5060a3767128f2e96a256a2",
          "blockNumber": "0x65e7c6",
          "transactionHash": "0xb029881aeeab2a5ad2ad2793d6ae8e5741da5014ee65e14abd6bd5bda298beeb",
          "transactionIndex": "0x6f",
          "logIndex": "0x4e",
          "removed": false
        },
        {
          "address": "0x9ddfaca8183c41ad55329bdeed9f6a8d53168b1b",
          "topics": [
            "0x1ced9348ff549fceab2ac57cd3a9de38edaaab274b725ee82c23e8fc8c4eec7a",
            "0x12a86a2d218796e5a986d3ea705674b8102687c585428a5671a8558b3bc479cc"
          ],
          "data": "0x00000000000000000000000000000000000000000000000040167d558d7ec82b00000000000000000000000000000000000000000000000069b8a17083aac82b",
          "blockHash": "0x91b1b933d6fbc777a0eccc6f07a6251f04f386e7e5060a3767128f2e96a256a2",
          "blockNumber": "0x65e7c6",
          "transactionHash": "0xb029881aeeab2a5ad2ad2793d6ae8e5741da5014ee65e14abd6bd5bda298beeb",
          "transactionIndex": "0x6f",
          "logIndex": "0x4f",
          "removed": false
        }
      ],
      "logsBloom": "0x00000004000000000100000000000000000000000020000000000000020000000000000000000000000000000000000000000000000000000000000000000000000000000000000000000008000000000000000000000000000020000020000008000000000000000000000000000000000000000000000000000010000040000000000000000000000040010000800000000020000000000000000100000000000000000000000000000000010000000000000000000000000004000000000000000002000000000000000000000000000000000000000110000000000000000010000000000000800000000000000000000020000000000000000000000000",
      "type": "0x2",
      "transactionHash": "0xb029881aeeab2a5ad2ad2793d6ae8e5741da5014ee65e14abd6bd5bda298beeb",
      "transactionIndex": "0x6f",
      "blockHash": "0x91b1b933d6fbc777a0eccc6f07a6251f04f386e7e5060a3767128f2e96a256a2",
      "blockNumber": "0x65e7c6",
      "gasUsed": "0xf0e5",
      "effectiveGasPrice": "0x3b6b1c4c4",
      "from": "0x29c2d9b84a2d0a52a899e1e85b600a6aad7cc950",
      "to": "0x779877a7b0d9e8603169ddbd7836e478b4624789",
      "contractAddress": null
    }
  ],
  "libraries": [],
  "pending": [],
  "returns": {},
  "timestamp": 1726155567,
  "chain": 11155111,
  "commit": "d017f51"
}